{
  "_format": "hh-sol-artifact-1",
  "contractName": "Betting",
  "sourceName": "contracts/Betting.sol",
  "abi": [
    {
      "inputs": [
        {
          "internalType": "address",
          "name": "",
          "type": "address"
        }
      ],
      "name": "balances",
      "outputs": [
        {
          "internalType": "uint256",
          "name": "",
          "type": "uint256"
        }
      ],
      "stateMutability": "view",
      "type": "function"
    },
    {
      "inputs": [],
      "name": "deposit",
      "outputs": [],
      "stateMutability": "payable",
      "type": "function"
    },
    {
      "inputs": [
        {
          "internalType": "address",
          "name": "user",
          "type": "address"
        }
      ],
      "name": "getBalance",
      "outputs": [
        {
          "internalType": "uint256",
          "name": "",
          "type": "uint256"
        }
      ],
      "stateMutability": "view",
      "type": "function"
    },
    {
      "inputs": [
        {
          "internalType": "address",
          "name": "user",
          "type": "address"
        },
        {
          "internalType": "uint256",
          "name": "amount",
          "type": "uint256"
        }
      ],
      "name": "payout",
      "outputs": [],
      "stateMutability": "nonpayable",
      "type": "function"
    }
  ],
  "bytecode": "0x608060405234801561001057600080fd5b506102b2806100206000396000f3fe60806040526004361061003f5760003560e01c8063117de2fd1461004457806327e235e314610066578063d0e30db0146100a5578063f8b2cb4f146100ad575b600080fd5b34801561005057600080fd5b5061006461005f3660046101ee565b6100e3565b005b34801561007257600080fd5b50610093610081366004610218565b60006020819052908152604090205481565b60405190815260200160405180910390f35b6100646101ac565b3480156100b957600080fd5b506100936100c8366004610218565b6001600160a01b031660009081526020819052604090205490565b6001600160a01b0382166000908152602081905260409020548111156101445760405162461bcd60e51b81526020600482015260126024820152714e6f7420656e6f7567682062616c616e636560701b604482015260640160405180910390fd5b6001600160a01b0382166000908152602081905260408120805483929061016c908490610250565b90915550506040516001600160a01b0383169082156108fc029083906000818181858888f193505050501580156101a7573d6000803e3d6000fd5b505050565b33600090815260208190526040812080543492906101cb908490610269565b9091555050565b80356001600160a01b03811681146101e957600080fd5b919050565b6000806040838503121561020157600080fd5b61020a836101d2565b946020939093013593505050565b60006020828403121561022a57600080fd5b610233826101d2565b9392505050565b634e487b7160e01b600052601160045260246000fd5b818103818111156102635761026361023a565b92915050565b808201808211156102635761026361023a56fea26469706673582212206df18744d4a1518e5e4ad5cc11bcc052c63296069f6a8112a2aee8fc0101361164736f6c63430008180033",
  "linkReferences": {},
  "deployedLinkReferences": {}
}